{
  "contractName": "Faucet",
  "abi": [
    {
      "inputs": [],
      "name": "numOfFunders",
      "outputs": [
        {
          "internalType": "uint256",
          "name": "",
          "type": "uint256"
        }
      ],
      "stateMutability": "view",
      "type": "function",
      "constant": true
    },
    {
      "inputs": [],
      "name": "test3",
      "outputs": [
        {
          "internalType": "uint256",
          "name": "",
          "type": "uint256"
        }
      ],
      "stateMutability": "pure",
      "type": "function",
      "constant": true
    },
    {
      "inputs": [],
      "name": "testNum",
      "outputs": [
        {
          "internalType": "uint256",
          "name": "",
          "type": "uint256"
        }
      ],
      "stateMutability": "view",
      "type": "function",
      "constant": true
    },
    {
      "stateMutability": "payable",
      "type": "receive",
      "payable": true
    },
    {
      "inputs": [],
      "name": "emitLog",
      "outputs": [
        {
          "internalType": "bytes32",
          "name": "",
          "type": "bytes32"
        }
      ],
      "stateMutability": "pure",
      "type": "function",
      "constant": true
    },
    {
      "inputs": [
        {
          "internalType": "address",
          "name": "newOwner",
          "type": "address"
        }
      ],
      "name": "transferOwnership",
      "outputs": [],
      "stateMutability": "nonpayable",
      "type": "function"
    },
    {
      "inputs": [],
      "name": "addFunds",
      "outputs": [],
      "stateMutability": "payable",
      "type": "function",
      "payable": true
    },
    {
      "inputs": [],
      "name": "getAllFunders",
      "outputs": [
        {
          "internalType": "address[]",
          "name": "",
          "type": "address[]"
        }
      ],
      "stateMutability": "view",
      "type": "function",
      "constant": true
    },
    {
      "inputs": [],
      "name": "test1",
      "outputs": [],
      "stateMutability": "nonpayable",
      "type": "function"
    },
    {
      "inputs": [],
      "name": "test2",
      "outputs": [],
      "stateMutability": "nonpayable",
      "type": "function"
    },
    {
      "inputs": [
        {
          "internalType": "uint256",
          "name": "withdrawAmount",
          "type": "uint256"
        }
      ],
      "name": "withdraw",
      "outputs": [],
      "stateMutability": "nonpayable",
      "type": "function"
    },
    {
      "inputs": [
        {
          "internalType": "uint8",
          "name": "index",
          "type": "uint8"
        }
      ],
      "name": "getFunderAtIndex",
      "outputs": [
        {
          "internalType": "address",
          "name": "",
          "type": "address"
        }
      ],
      "stateMutability": "view",
      "type": "function",
      "constant": true
    }
  ],
  "bytecode": "0x608060405234801561001057600080fd5b50336000806101000a81548173ffffffffffffffffffffffffffffffffffffffff021916908373ffffffffffffffffffffffffffffffffffffffff1602179055506103e8600181905550610c44806100696000396000f3fe6080604052600436106100a05760003560e01c80636fbbb55d116100645780636fbbb55d1461016b578063a26759cb14610196578063ae28f1ed146101a0578063af7f2c9b146101cb578063f2fde38b146101f6578063f42c13bf1461021f576100a7565b80630a8e8e01146100ac5780630a93cf33146100d75780632e1a7d4d1461011457806366e41cb71461013d5780636b59084d14610154576100a7565b366100a757005b600080fd5b3480156100b857600080fd5b506100c161024a565b6040516100ce9190610782565b60405180910390f35b3480156100e357600080fd5b506100fe60048036038101906100f991906107db565b610253565b60405161010b9190610849565b60405180910390f35b34801561012057600080fd5b5061013b60048036038101906101369190610890565b610293565b005b34801561014957600080fd5b5061015261032a565b005b34801561016057600080fd5b506101696103ba565b005b34801561017757600080fd5b5061018061044a565b60405161018d919061097b565b60405180910390f35b61019e610544565b005b3480156101ac57600080fd5b506101b5610664565b6040516101c29190610782565b60405180910390f35b3480156101d757600080fd5b506101e061066a565b6040516101ed9190610782565b60405180910390f35b34801561020257600080fd5b5061021d600480360381019061021891906109c9565b610670565b005b34801561022b57600080fd5b50610234610741565b6040516102419190610a0f565b60405180910390f35b60006064905090565b6000600460008360ff16815260200190815260200160002060009054906101000a900473ffffffffffffffffffffffffffffffffffffffff169050919050565b80670de0b6b3a76400008111156102df576040517f08c379a00000000000000000000000000000000000000000000000000000000081526004016102d690610aad565b60405180910390fd5b3373ffffffffffffffffffffffffffffffffffffffff166108fc839081150290604051600060405180830381858888f19350505050158015610325573d6000803e3d6000fd5b505050565b3373ffffffffffffffffffffffffffffffffffffffff1660008054906101000a900473ffffffffffffffffffffffffffffffffffffffff1673ffffffffffffffffffffffffffffffffffffffff16146103b8576040517f08c379a00000000000000000000000000000000000000000000000000000000081526004016103af90610b19565b60405180910390fd5b565b3373ffffffffffffffffffffffffffffffffffffffff1660008054906101000a900473ffffffffffffffffffffffffffffffffffffffff1673ffffffffffffffffffffffffffffffffffffffff1614610448576040517f08c379a000000000000000000000000000000000000000000000000000000000815260040161043f90610b19565b60405180910390fd5b565b6060600060025467ffffffffffffffff81111561046a57610469610b39565b5b6040519080825280602002602001820160405280156104985781602001602082028036833780820191505090505b50905060005b60025481101561053c576004600082815260200190815260200160002060009054906101000a900473ffffffffffffffffffffffffffffffffffffffff168282815181106104ef576104ee610b68565b5b602002602001019073ffffffffffffffffffffffffffffffffffffffff16908173ffffffffffffffffffffffffffffffffffffffff1681525050808061053490610bc6565b91505061049e565b508091505090565b6000339050600360008273ffffffffffffffffffffffffffffffffffffffff1673ffffffffffffffffffffffffffffffffffffffff16815260200190815260200160002060009054906101000a900460ff16610661576000600260008154809291906105af90610bc6565b9190505590506001600360008473ffffffffffffffffffffffffffffffffffffffff1673ffffffffffffffffffffffffffffffffffffffff16815260200190815260200160002060006101000a81548160ff021916908315150217905550816004600083815260200190815260200160002060006101000a81548173ffffffffffffffffffffffffffffffffffffffff021916908373ffffffffffffffffffffffffffffffffffffffff160217905550505b50565b60015481565b60025481565b3373ffffffffffffffffffffffffffffffffffffffff1660008054906101000a900473ffffffffffffffffffffffffffffffffffffffff1673ffffffffffffffffffffffffffffffffffffffff16146106fe576040517f08c379a00000000000000000000000000000000000000000000000000000000081526004016106f590610b19565b60405180910390fd5b806000806101000a81548173ffffffffffffffffffffffffffffffffffffffff021916908373ffffffffffffffffffffffffffffffffffffffff16021790555050565b60007f48656c6c6f20576f726c64000000000000000000000000000000000000000000905090565b6000819050919050565b61077c81610769565b82525050565b60006020820190506107976000830184610773565b92915050565b600080fd5b600060ff82169050919050565b6107b8816107a2565b81146107c357600080fd5b50565b6000813590506107d5816107af565b92915050565b6000602082840312156107f1576107f061079d565b5b60006107ff848285016107c6565b91505092915050565b600073ffffffffffffffffffffffffffffffffffffffff82169050919050565b600061083382610808565b9050919050565b61084381610828565b82525050565b600060208201905061085e600083018461083a565b92915050565b61086d81610769565b811461087857600080fd5b50565b60008135905061088a81610864565b92915050565b6000602082840312156108a6576108a561079d565b5b60006108b48482850161087b565b91505092915050565b600081519050919050565b600082825260208201905092915050565b6000819050602082019050919050565b6108f281610828565b82525050565b600061090483836108e9565b60208301905092915050565b6000602082019050919050565b6000610928826108bd565b61093281856108c8565b935061093d836108d9565b8060005b8381101561096e57815161095588826108f8565b975061096083610910565b925050600181019050610941565b5085935050505092915050565b60006020820190508181036000830152610995818461091d565b905092915050565b6109a681610828565b81146109b157600080fd5b50565b6000813590506109c38161099d565b92915050565b6000602082840312156109df576109de61079d565b5b60006109ed848285016109b4565b91505092915050565b6000819050919050565b610a09816109f6565b82525050565b6000602082019050610a246000830184610a00565b92915050565b600082825260208201905092915050565b7f43616e6e6f74207769746864726177206d6f7265207468616e2031206574686560008201527f7200000000000000000000000000000000000000000000000000000000000000602082015250565b6000610a97602183610a2a565b9150610aa282610a3b565b604082019050919050565b60006020820190508181036000830152610ac681610a8a565b9050919050565b7f4f6e6c79206f776e6465722063616e2073656e64206d65737361676500000000600082015250565b6000610b03601c83610a2a565b9150610b0e82610acd565b602082019050919050565b60006020820190508181036000830152610b3281610af6565b9050919050565b7f4e487b7100000000000000000000000000000000000000000000000000000000600052604160045260246000fd5b7f4e487b7100000000000000000000000000000000000000000000000000000000600052603260045260246000fd5b7f4e487b7100000000000000000000000000000000000000000000000000000000600052601160045260246000fd5b6000610bd182610769565b91507fffffffffffffffffffffffffffffffffffffffffffffffffffffffffffffffff8203610c0357610c02610b97565b5b60018201905091905056fea2646970667358221220df3e49550ff3abcb2e747cf86d7c483edc4d2a4ec56e6d9a8f3d52b37b8f5f6b64736f6c63430008130033",
  "immutableReferences": {},
  "source": "// SPDX-License-Identifier: MIT\npragma solidity >=0.4.22 <0.9.0;\nimport \"./Owned.sol\";\nimport \"./Logger.sol\";\nimport \"./IFaucet.sol\";\n\ncontract Faucet is Owned, Logger, IFaucet {\n \n    uint public numOfFunders;\n\n    mapping(address => bool) private funders;\n    mapping(uint => address) private lutFunders;\n    receive() external payable {}\n\n    function emitLog() public override pure returns(bytes32) {\n        return \"Hello World\";\n    }\n\n    function transferOwnership(address newOwner) external onlyOwner {\n        owner = newOwner;\n    }\n\n    modifier limitWithdraw(uint withdrawAmount) {\n        require(withdrawAmount <= 1000000000000000000, \"Cannot withdraw more than 1 ether\");\n        // This underscore means that if above exception will not occur, then function body will be executed.\n        _;\n    }\n\n    function addFunds() override external payable {\n        // Msg is a special object that holds some information related to the transaction.\n        address funder = msg.sender;\n        if(!funders[funder]) {\n            uint index = numOfFunders++;\n            funders[funder] = true;\n            lutFunders[index] = funder;\n        }\n\n    }\n\n    function getAllFunders() external view returns(address[] memory) {\n        address[] memory _funders = new address[](numOfFunders);\n\n        for(uint i = 0; i< numOfFunders; i++) {\n            _funders[i] = lutFunders[i];\n        }\n\n        return _funders;\n    }\n\n    function test1() external onlyOwner {\n        // some managing stuff that only admin should have access to. \n    }\n\n    function test2() external onlyOwner {\n        // some managing stuff that only admin should have access to.\n    }\n\n    function withdraw(uint withdrawAmount) external limitWithdraw(withdrawAmount) {\n        // if our amount is less than 1 ETH\n        // if (withdrawAmount < 1000000000000000000) {\n        //     payable(msg.sender).transfer(withdrawAmount);\n        // }\n        // require(withdrawAmount <= 1000000000000000000, \"Cannot withdraw more than 1 ether\");\n        payable(msg.sender).transfer(withdrawAmount);\n    }\n\n    function getFunderAtIndex(uint8 index) external view returns(address) {\n        return lutFunders[index];\n    }\n}\n\n// Block Info\n// Nonce - a hash that when combined with the minHash proofs that the block has gone through proof of work(POW).\n// 8 Bytes => 64 Bits\n\n\n// const instance = await Faucet.deployed();\n// instance.addFunds({from: accounts[0], value:\"200000000\"});\n// instance.getFunderAtIndex(0);\n// instance.getAllFunders();\n\n// instance.withdraw(\"500000000000000000\", {from: accounts[0]})\n\n",
  "sourcePath": "/Users/usamarabani/Downloads/faucet-course-main/contracts/FaucetContract.sol",
  "compiler": {
    "name": "solc",
    "version": "0.8.19+commit.7dd6d404.Emscripten.clang"
  },
  "schemaVersion": "3.4.16",
  "updatedAt": "2024-01-28T10:25:41.057Z",
  "networkType": "ethereum",
  "devdoc": {
    "kind": "dev",
    "methods": {},
    "version": 1
  },
  "userdoc": {
    "kind": "user",
    "methods": {},
    "version": 1
  }
}