{
  "contractName": "Storage",
  "abi": [
    {
      "inputs": [],
      "stateMutability": "nonpayable",
      "type": "constructor"
    },
    {
      "inputs": [],
      "name": "a",
      "outputs": [
        {
          "internalType": "uint8",
          "name": "",
          "type": "uint8"
        }
      ],
      "stateMutability": "view",
      "type": "function",
      "constant": true
    },
    {
      "inputs": [
        {
          "internalType": "uint256",
          "name": "",
          "type": "uint256"
        }
      ],
      "name": "aa",
      "outputs": [
        {
          "internalType": "uint256",
          "name": "",
          "type": "uint256"
        }
      ],
      "stateMutability": "view",
      "type": "function",
      "constant": true
    },
    {
      "inputs": [],
      "name": "b",
      "outputs": [
        {
          "internalType": "uint16",
          "name": "",
          "type": "uint16"
        }
      ],
      "stateMutability": "view",
      "type": "function",
      "constant": true
    },
    {
      "inputs": [
        {
          "internalType": "address",
          "name": "",
          "type": "address"
        }
      ],
      "name": "bb",
      "outputs": [
        {
          "internalType": "uint256",
          "name": "",
          "type": "uint256"
        }
      ],
      "stateMutability": "view",
      "type": "function",
      "constant": true
    },
    {
      "inputs": [],
      "name": "c",
      "outputs": [
        {
          "internalType": "address",
          "name": "",
          "type": "address"
        }
      ],
      "stateMutability": "view",
      "type": "function",
      "constant": true
    },
    {
      "inputs": [
        {
          "internalType": "uint256",
          "name": "",
          "type": "uint256"
        }
      ],
      "name": "cc",
      "outputs": [
        {
          "internalType": "uint256",
          "name": "",
          "type": "uint256"
        }
      ],
      "stateMutability": "view",
      "type": "function",
      "constant": true
    },
    {
      "inputs": [],
      "name": "f",
      "outputs": [
        {
          "internalType": "uint256",
          "name": "",
          "type": "uint256"
        }
      ],
      "stateMutability": "view",
      "type": "function",
      "constant": true
    },
    {
      "inputs": [],
      "name": "g",
      "outputs": [
        {
          "internalType": "uint8",
          "name": "",
          "type": "uint8"
        }
      ],
      "stateMutability": "view",
      "type": "function",
      "constant": true
    },
    {
      "inputs": [],
      "name": "h",
      "outputs": [
        {
          "internalType": "uint256",
          "name": "",
          "type": "uint256"
        }
      ],
      "stateMutability": "view",
      "type": "function",
      "constant": true
    }
  ],
  "bytecode": "0x60806040526007600360006101000a81548160ff021916908360ff160217905550600a600360016101000a81548161ffff021916908361ffff160217905550734e702f6fec4e9a8c2cdb730346fb96df8fce1c316003806101000a81548173ffffffffffffffffffffffffffffffffffffffff021916908373ffffffffffffffffffffffffffffffffffffffff1602179055506001600360176101000a81548160ff021916908315150217905550600f600360186101000a81548167ffffffffffffffff021916908367ffffffffffffffff16021790555060c86004556028600560006101000a81548160ff021916908360ff16021790555061031560065534801561010a57600080fd5b5060046000806002815260200190815260200160002081905550600a600080600381526020019081526020016000208190555060646001600073cae1a86c6da0ed70d45ca25f4195f5f31cbae76e73ffffffffffffffffffffffffffffffffffffffff1673ffffffffffffffffffffffffffffffffffffffff16815260200190815260200160002081905550610486806101a56000396000f3fe608060405234801561001057600080fd5b50600436106100935760003560e01c8063b8c9d36511610066578063b8c9d36514610122578063c3da42b814610140578063e1d9bbbd1461015e578063e2179b8e1461018e578063eb366c13146101ac57610093565b80630dbe671f1461009857806326121ff0146100b65780634df7e3d0146100d45780637323febe146100f2575b600080fd5b6100a06101dc565b6040516100ad91906102b6565b60405180910390f35b6100be6101ef565b6040516100cb91906102ea565b60405180910390f35b6100dc6101f5565b6040516100e99190610322565b60405180910390f35b61010c6004803603810190610107919061036e565b610209565b60405161011991906102ea565b60405180910390f35b61012a610221565b60405161013791906102ea565b60405180910390f35b610148610227565b60405161015591906103dc565b60405180910390f35b61017860048036038101906101739190610423565b61024b565b60405161018591906102ea565b60405180910390f35b610196610263565b6040516101a391906102b6565b60405180910390f35b6101c660048036038101906101c1919061036e565b610276565b6040516101d391906102ea565b60405180910390f35b600360009054906101000a900460ff1681565b60045481565b600360019054906101000a900461ffff1681565b60006020528060005260406000206000915090505481565b60065481565b60038054906101000a900473ffffffffffffffffffffffffffffffffffffffff1681565b60016020528060005260406000206000915090505481565b600560009054906101000a900460ff1681565b6002818154811061028657600080fd5b906000526020600020016000915090505481565b600060ff82169050919050565b6102b08161029a565b82525050565b60006020820190506102cb60008301846102a7565b92915050565b6000819050919050565b6102e4816102d1565b82525050565b60006020820190506102ff60008301846102db565b92915050565b600061ffff82169050919050565b61031c81610305565b82525050565b60006020820190506103376000830184610313565b92915050565b600080fd5b61034b816102d1565b811461035657600080fd5b50565b60008135905061036881610342565b92915050565b6000602082840312156103845761038361033d565b5b600061039284828501610359565b91505092915050565b600073ffffffffffffffffffffffffffffffffffffffff82169050919050565b60006103c68261039b565b9050919050565b6103d6816103bb565b82525050565b60006020820190506103f160008301846103cd565b92915050565b610400816103bb565b811461040b57600080fd5b50565b60008135905061041d816103f7565b92915050565b6000602082840312156104395761043861033d565b5b60006104478482850161040e565b9150509291505056fea26469706673582212202fcc207f8f922ec5048d791e0f71a8954d89c2b5e678161881502becef024f7964736f6c63430008130033",
  "immutableReferences": {},
  "source": "// SPDX-License-Identifier: MIT\npragma solidity >=0.4.22 <0.9.0;\n\ncontract Storage {\n    mapping(uint => uint) public aa;\n    mapping(address => uint) public bb;\n    uint[] public cc;\n    uint8 public a = 7;     // 1 Byte\n    uint16 public b = 10;   // 1 Byte\n    address public c = 0x4E702f6FEC4E9a8c2cdb730346fb96dF8fce1C31;  // 20 Byte\n    bool d = true;          // 1 Byte\n    uint64 e = 15;          // 8 Byte\n    uint256 public f = 200; // 32 Byte\n    uint8 public g = 40;    // 1 Byte\n    uint256 public h = 789; // 32 Byte\n\n    constructor() {\n        aa[2] = 4;\n        aa[3] = 10;\n\n        bb[0xcAe1a86c6DA0ED70d45Ca25F4195F5f31Cbae76e] = 100;\n\n    }\n}",
  "sourcePath": "/Users/usamarabani/Downloads/faucet-course-main/contracts/Storage.sol",
  "compiler": {
    "name": "solc",
    "version": "0.8.19+commit.7dd6d404.Emscripten.clang"
  },
  "schemaVersion": "3.4.16",
  "updatedAt": "2024-01-28T10:25:41.566Z",
  "networkType": "ethereum",
  "devdoc": {
    "kind": "dev",
    "methods": {},
    "version": 1
  },
  "userdoc": {
    "kind": "user",
    "methods": {},
    "version": 1
  }
}